:020000020000FC
:1000000016C0B9C0189518950994B5C092C0189536
:100010009AC01895189508C11895189518951895AF
:100020001895CCC01895697A40744042405B002412
:100030000FBEF4E0EFE5FEBFEDBF0292E036F00543
:1000400009F4EEE1E015F005C1F791B69092600079
:1000500094B604BE80E088BB8EE087BB80E385BB9E
:1000600080E084BB80E082BB8CEB81BB82E083BFFD
:1000700081EC8EBDF5BD88E181BD88E081BD18D1E0
:1000800027D1A2E89E918E9189569A4729F0E6E2FF
:1000900085918D93A838E1F790FA9F1226F4D9D074
:1000A000DDD0E1D0F4C292FE04C0DDD0D2D0006831
:1000B000EEC291FE02C0DCD0EAC293FE05C0C9D0F8
:1000C000C8D0D1D0D0D0FBCFF2D0492D58E040FFDE
:1000D000C5D040FDCDD0ECD046955A95C1F7F4CFB0
:1000E0009FB68A9409F4ECE79FBE18959FB68A9450
:1000F00009F4EAE89FBE189520FD939A21FD949A91
:1001000022FD959AEAE83F12E6E7832C24BC189575
:10011000A8951895A89511FDEFCFECE75F12E0E7E1
:10012000852C20FD939821FD949822FD959844BC40
:1001300018959FB640916300415008F40E7F40939C
:1001400063009FBE18959FB640916400439540930D
:1001500064004F7019F4BB2019F0BA949FBE189533
:10016000409165004395409365004091660043953A
:1001700040936600F3CF46B557B59EB496FE0EC0C9
:100180009FB640505A4659BD48BD41E84EBD48E073
:1001900048BF9FBE18959FB6BB240CC098B693FC71
:1001A000FACF9FB63A0148B559B540505649641A3E
:1001B000750A106141EC4EBD9FBE18959FB641B1C6
:1001C000403051F1403679F0403881F0403A39F012
:1001D000483A29F1483BE1F0483FF1F011F404FFBF
:1001E000146145EC1EC014FF006319C005FF17C061
:1001F00004FF04C073B06F2E0F7E11C063B00F7D7B
:100200000EC0F3B94AEF10FD4FEF40937E0007C0D8
:1002100040917E0043B9F8CF46B7406902C046B767
:10022000406846BF9FBE18959FB64CB1453F59F0F8
:1002300006FF0DC030F450917F005A9531F4742EB2
:1002400018610F7B04C0006451E050937F009FBE93
:10025000189578EC90E5C29A939A0EC074EB94E6E8
:10026000C19A949A09C070EA98E7C39A959A04C013
:100270007CE89CE8C19A939A08B215B2A2B208BA77
:1002800015BAA2BAF2BF82B78032E8F362B3677CD4
:1002900062BB68B3617F68BB60E1F2BFA89582B7BB
:1002A0008717E8F36A95C9F79A9549F7089500D03A
:1002B00000D000D09FE060E1F2BF81E088BFA89548
:1002C00088B780FFFDCF6A95B9F79A95A1F7089591
:1002D0008091600081BFC0E8D0E080E890E0A89500
:1002E000E199FDCF67B760FDFACFC83881F09FBBB9
:1002F0008EBB0196E09A6DB317F06993F0CF7991B8
:100300007DBBF894E29A6713E19A7894E8CFD2DF44
:100310008FEF81BF0895000C111CAA1C8A95D9F794
:100320000895869FA12C969FA00CC11DDF1F879F5B
:10033000A00CC11DDF1F979FC00DD11D089513FD97
:100340008AC012FD7EC01F7EC2E8D0E007FD46C015
:1003500001C0ADDFB301A895FF9FAA24C23831F4D4
:10036000603C87E67807D0F18FE113C0809182006E
:10037000681780918300780768F7C43811F482E227
:1003800008C080918400681780918500780710F379
:1003900080E2882EA89514FFFDCF1F7EC301080EB2
:1003A000191EAF1E861B970B80569F4F815491409C
:1003B00080F68A9479F783E0AEDF1992A99253DF31
:1003C000C43841F277DF4FDFC63821F273DF4BDFED
:1003D0007FDF4AC013FD3FC012FD33C01F7EC091B6
:1003E0007C00D0917D00C3018C1B9D0B60F41068D4
:1003F000909581959F4F60917A0070917B0008C025
:10040000CC27DD2711C01F776091780070917900AB
:1004100080589140AAF3CAE3D0E083DFC93583E076
:10042000D80710F0C9E5D3E0C0937600D0937700E9
:1004300001FF03C082E0B82EA5C080E1B816BF1E40
:100440000895E3011F76CC0FC295209669F3CE0183
:100450006DE373E0E0CFD72D1F76C0E0D03021F3FD
:10046000CE0160E074E0D7CF809186009091870044
:1004700080937C0090937D00609182007091830056
:10048000681B790B14D08093780090937900609169
:100490008600709187008091840090918500681B90
:1004A000790B05D080937A0090937B000895605873
:1004B000714085E595E00196A8959F3F890721F059
:1004C000C0EEDCEF2EDFB9F70895F8948CB59DB53A
:1004D0006091640078B77894903872FD6F1FC09176
:1004E0006700D0916800A0906900809367009093A6
:1004F00068006093690000906A0010906B00709132
:100500006C00C0936A00D0936B00A0926C008019BD
:100510009109670B803077E097076F0728F480E038
:1005200097E060E0D694C7946130A9E5B3E058F055
:100530006230ADEAB1E038F0643018F064E090E089
:1005400080E0A6EDB0E07D0180936D0090936E0099
:1005500060936F00669597958795C0916700D091DD
:100560006800A090690073E32DD0C0937000D09311
:100570007100A092720041D014FD2CCFC091760082
:10058000D0917700CE15DF0508F0E701CC15DD0529
:1005900008F0E60189E593E08C1B9D0B79F01D7F47
:1005A000209671F016FF04C0880F991FCC0FDD1F35
:1005B0001E7FC09580951E012C0108951260F8CF12
:1005C0001160F7CF879FC10DDF1FAF1E979FC00D32
:1005D000D11DAF1E679FD00DA11C089580916D00A5
:1005E00090916E0060916F00C0917000D091710089
:1005F000A09072000895F2DFE5DF79B7072E7B7EC9
:1006000079BF70E1F894DBBDCABD78BF8CB59DB5EC
:10061000789401606091640078B7903872FD6F1F24
:10062000C81BD90BA60AA09263000AF40E7F09BE6C
:100630000895279670E1F8948CB59DB5C80FD91F21
:10064000DBBDCABD78BFA0926300016078940895B5
:1006500014FDC0DE00FDFCCF0895F5BD80E488BF29
:10066000E8E888B3817F88BB82B3877C82BB08952A
:10067000B09BF09365008091650085FF0895F89424
:10068000F7BBF4BBF1BB88E181BDF1BDB9CA979856
:10069000EBDE84E588BF89BF80E080BD89E189B950
:1006A00080E18AB986E880BD8CB18CB18CB15F9A4B
:1006B000579A006382E582B985EC86BF81EC8EBDD6
:1006C00089B7806289BF7894BB24137EF09365005C
:1006D000F0936600A89514FD02C0CADFFBCF2FDEA1
:1006E000C0917600D0917700209671F78AE0B81615
:1006F00088F312FFF6BF13FFFAB9812F8C7019F03F
:1007000089B78F7D89BFB4DDB3DDB2DDA6DF0D7F94
:10071000F0936500F0936600A89514FD0CC0BB2013
:10072000D9F7A6DF809166008837B1F78CE3809314
:10073000660099DDF1CF4EDE209651F3BB2041F3E8
:100740008CDF80B7886080BF37989298CFE8D0E080
:100750006E0102604CD086E0809362008CE0809352
:10076000610081E085BD17FD0DC047D0AAD043D000
:10077000B4D043D0CCD03FD0D6D03FD0EED03BD0B9
:10078000F8D00CC038D002D138D0EDD034D0D8D089
:1007900034D0C3D030D0AED030D099D08091610069
:1007A000803010FDF1F0E601209651F28091610059
:1007B0008C3038F4839580936100629686ED90E0EA
:1007C00004C01F7B6B9689E593E0C817D90710F02A
:1007D0006C01C9CF6E01C7CF40DF6CDD44DD3EDD6B
:1007E00069DD94CFE8E882B3877C82BB5EC0F0937A
:1007F000610010645AC01F7D01C0106280916200C8
:10080000815050F08093620016FF29C0C0E0DFEFF6
:10081000AF2E0FDFA4E03BC0E83809F4EAE816FF8A
:100820001EC0C0917300D0917400A090750072B783
:100830007F71D71BAF0A30F0C0307AECD70778E071
:10084000A70620F4C0E0D8EB7BE0A72EC09373008E
:10085000D0937400A0927500ECDEAFEF18C07BE17E
:10086000CADEF6DE79E5C7DE00FFBCCF14FDB2DDDF
:1008700068B1612765FDF8CFB1DEA92F6F13AFEF27
:10088000C80FD91FA61EC80FD91FA61EB6DEBA2FC5
:1008900000FFADCF14FD9EDD68B1612765FD03C08B
:1008A000AB17AF1FF5CFAA9599F70FDE16FFD0DE75
:1008B000809162008F131160BF1208958F918F9104
:1008C0008BCF81E087B9C29810FFC39A089580E06A
:1008D00087B9C39810FFC29A089582E087B9F89447
:1008E000287F10FF226082B3959892B38913949A5F
:1008F0007894089581E087B9F894287F10FF2460E8
:1009000082B3949892B38913959A7894089580E06D
:1009100087B9C39810FFC19A089582E087B9C1983A
:1009200010FFC39A089581E087B9F894287F10FFDB
:10093000216082B3949892B38913939A789408951E
:1009400080E087B9F894287F10FF226082B39398E3
:1009500092B38913949A7894089582E087B9C198E4
:1009600010FFC29A089581E087B9C29810FFC19A1A
:10097000089580E087B9F894287F10FF246082B33F
:10098000939892B38913959A7894089582E087B9E1
:10099000F894287F10FF216082B3959892B3891351
:0609A000939A789408957B
:101C0000E4E0FFE5FEBFEDBF00E0ECEBFEE0C0E886
:101C1000D0E0A0E6B0E042E045BD5CEE539571F047
:101C200040EC04BD48BFA03619F0E8B6E6FC46C05B
:101C30008099F9CF04BD48BFE8B6E6FCE1C1809BBE
:101C4000FBCF04BD48BFE8B6E6FCE8CF8099FBCFE8
:101C500034B404BD48BFE8B6E6FCD2C1809BFBCFDC
:101C600024B4022C030C802C07940694402C069478
:101C70008008809420943094409460EE83E084BC8B
:101C800048BFE8B6E6FCBCC1809BFBCF84BC48BF24
:101C9000E8B6E6FCC3CF8099FBCF0894E8B6E6FC33
:101CA00023C0809BFBCFE8B6E6FCB8CF8099FBCF82
:101CB0008894E8B6E6FC18C0809BFBCF43BC88E163
:101CC000C09AB89A34BC48BFE8B6E6FEFDCFC098CB
:101CD00024BC48BFE8B6E6FEFDCF8A9589F7C0E68A
:101CE000D0E060E081E00BC0679548F6815068F570
:101CF0005CEE0994CA17DB07D1F0699188E066951C
:101D0000C09A34BC48BFE8B610F0E7FC08BBE6FE5A
:101D1000FACFC09808F0C09A24BC48BFE8B610F0CB
:101D2000E7FC08BBE6FEFACF8A9549F7E3CFC09AF5
:101D300034BC48BFC0E8D0E0A0E6B0E0E8B6E7FEBB
:101D4000FDCFB89808BB6ACF80E060E898CFECEB95
:101D5000FEE0C0E8D0E0F8CF009000000090000066
:101D60000090000000900000009000000090000033
:101D70000090000000900000000000006B3121F78F
:101D8000562E3796E1CF962E56263496DDCF762EF8
:101D900056263496D9CF662E56263496D5CF6E3039
:101DA000B1F656263596D0CF69935626CF3584E0C6
:101DB000D80768F681E0681A700A09F43C96C4CF27
:101DC0006511C5CFC0E8D0E0699199918991FD0175
:101DD0007BE170839182028372E073837EE074837F
:101DE0006583068317966130A1F48BE0838388E0D6
:101DF0008D93EF01ECEDFFE185918D93E43EE1F7EA
:101E0000FE01819161918627EA17FB07D9F78D932F
:101E10009ECF6D3151F5792F90E0039683839283A5
:101E200003970D938A95E9F789916991603380074B
:101E300094E0790779F460878991803059F4699149
:101E400060308EE131F0613083E919F0623087E073
:101E500009F482870D93D5CF8017900709F5D990A3
:101E6000C9905601AA0CBB1CCCCF6330E1F06230A4
:101E700041F2603131F2613121F2663069F3623151
:101E8000F1F1833F73E0970758F4643109F166314B
:101E900069F127966531C1F16331F9F10000000065
:101EA00080EC8683AECF90398FE071F0913982E07B
:101EB00059F092398AE041F0943982E329F0903860
:101EC00080E011F0913861F78D9383E0838399CF9F
:101ED00049D0EF01F5018FD076FDFDCF65916D936F
:101EE0000197E1F75F01FE010D938BCF3BD011E02D
:101EF0003ED06DB36D930197D9F70D9382CFCC246B
:101F0000DD2480E092E0689416E06FEF0EF06991B6
:101F10002ED00197D1F7E89474CF8F7F61E07F01D5
:101F2000F5010990199068D032960297D1F70F0108
:101F3000F501500163E0E03C7FE1F70719F058D06C
:101F4000F7015FCF0BD065E009D061E107D0F8CF92
:101F500077B770FDFDCFE199FECF0895F9DF67BF38
:101F6000E8950895039692838383039708953AD062
:101F7000DFBACEBA0894C01ED01E762FE09A6DB399
:0E1F8000671312FF08957DBBE29A1CBB089503
:101FC000687474703A2F2F6769746875622E636F36
:101FD0006D2F73696D2D2F7467792F00415652490B
:101FE00053505F3277B770FDFDCFE199FECF089572
:101FF00003D065E001D061E1F5DF67BFE8950895A2
:00000001FF
