:020000020000FC
:1000000016C0B9C0189518950994B5C092C0189536
:100010009AC018951895E5C01895189518951895D3
:100020001895A9C01895697A40744042405B002435
:100030000FBEF4E0EFE5FEBFEDBF0292E036F00543
:1000400009F4EEE1E015F005C1F791B69092600079
:1000500094B604BE80E088BB80E087BB80E385BBAC
:1000600080E084BB80E082BB8BEB81BB82E083BFFE
:1000700081E08EBDF5BD88E181BD88E081BDE0D025
:10008000EFD0A2E89E918E9189569A4729F0E6E238
:1000900085918D93A838E1F790FA9F1226F4A1D0AC
:1000A000A5D0A9D04BC292FE04C0A5D09AD00068BA
:1000B00045C291FE02C0A4D041C293FE05C091D0BA
:1000C00090D099D098D0FBCFBAD0492D58E040FFBE
:1000D0008DD040FD95D0B4D046955A95C1F7F4CF58
:1000E0009FB68A9409F4ECE79FBE18959FB68A9450
:1000F00009F4EAE89FBE189520FD909A21FD919A97
:1001000022FD939AEAE83F12E6E7832C24BC189577
:10011000A8951895A89511FDEFCFECE75F12E0E7E1
:10012000852C20FD909821FD919822FD939844BC48
:1001300018959FB640916300415008F40E7F40939C
:1001400063009FBE18959FB640916400439540930D
:1001500064004F7019F4BB2019F0BA949FBE189533
:10016000409165004395409365004091660043953A
:1001700040936600F3CF9FB641B1403051F1403615
:1001800079F0403881F0403A39F0483A29F1483B5B
:10019000E1F0483FF1F011F404FF146145EC1EC09A
:1001A00014FF006319C005FF17C004FF04C073B03B
:1001B0006F2E0F7E11C063B00F7D0EC0F3B94AEFF2
:1001C00010FD4FEF40937E0007C040917E0043B981
:1001D000F8CF46B7406902C046B7406846BF9FBEE9
:1001E000189578EC90E5979A909A0EC074EB94E687
:1001F000949A919A09C070EA98E7959A939A04C0E4
:100200007CE89CE8949A909A08B215B2A2B208BA17
:1002100015BAA2BAF2BF82B78032E8F362B3647F44
:1002200062BB62B36F7462BB60E1F2BFA89582B734
:100230008717E8F36A95C9F79A9549F7089500D0AA
:1002400000D000D09FE060E1F2BF81E088BFA895B8
:1002500088B780FFFDCF6A95B9F79A95A1F7089501
:100260008091600081BFC0E8D0E080E890E0A89570
:10027000E199FDCF67B760FDFACFC83881F09FBB29
:100280008EBB0196E09A6DB317F06993F0CF799128
:100290007DBBF894E29A6713E19A7894E8CFD2DFB5
:1002A0008FEF81BF0895000C111CAA1C8A95D9F705
:1002B0000895869FA12C969FA00CC11DDF1F879FCC
:1002C000A00CC11DDF1F979FC00DD11D089512FD09
:1002D00018C012FD16C0CAE3D0E0EBDFC93583E0D9
:1002E000D80710F0C9E5D3E0C0937600D09377002B
:1002F00001FF03C082E0B82E9CC080E1B816BF1E8B
:100300000895E3011F76CC0FC295209669F3CE01C4
:100310006DE373E0E0CF8091860090918700809339
:100320007C0090937D006091820070918300681B37
:10033000790B14D0809378009093790060918600B7
:10034000709187008091840090918500681B790BE3
:1003500005D080937A0090937B0008956058714097
:1003600085E595E00196A8959F3F890721F0C0EEAD
:10037000DCEF9FDFB9F70895F8948CB59DB56091D7
:10038000640078B77894903872FD6F1FC091670051
:10039000D0916800A09069008093670090936800F6
:1003A0006093690000906A0010906B0070916C007F
:1003B000C0936A00D0936B00A0926C0080199109E1
:1003C000670B803077E097076F0728F480E097E0AD
:1003D00060E0D694C7946130A9E5B3E058F062308C
:1003E000ADEAB1E038F0643018F064E090E080E00D
:1003F000A6EDB0E07D0180936D0090936E00609358
:100400006F00669597958795C0916700D0916800B9
:10041000A090690073E32DD0C0937000D093710059
:10042000A092720041D014FD54CFC0917600D091BB
:100430007700CE15DF0508F0E701CC15DD0508F0E3
:10044000E60189E593E08C1B9D0B79F01D7F2096DA
:1004500071F016FF04C0880F991FCC0FDD1F1E7F9F
:10046000C09580951E012C0108951260F8CF11608F
:10047000F7CF879FC10DDF1FAF1E979FC00DD11D06
:10048000AF1E679FD00DA11C089580916D009091C3
:100490006E0060916F00C0917000D0917100A090CB
:1004A00072000895F2DFE5DF79B7072E7B7E79BF12
:1004B00070E1F894DBBDCABD78BF8CB59DB578946A
:1004C00001606091640078B7903872FD6F1FC81B9F
:1004D000D90BA60AA09263000AF40E7F09BE089504
:1004E000279670E1F8948CB59DB5C80FD91FDBBD78
:1004F000CABD78BFA092630001607894089514FD8E
:10050000E8DE00FDFCCF0895F5BD80E488BFE8E893
:1005100082B38F7482BB82B3847F82BB0895829939
:10052000F09365008091650085FF0895F894F7BB0E
:10053000F4BBF1BB88E181BDF1BD62CBECDE84E5AB
:1005400088BF89BF006382E582B985EC86BF789455
:10055000BB24137EF0936500F0936600A89514FD0C
:1005600002C0DDDFFBCFB3DEC0917600D091770013
:10057000209671F78AE0B81688F312FFF6BF40DEC6
:100580003FDE3EDEC1DF0D7FF0936500F093660035
:10059000A89514FD0CC0BB20D9F7C1DF809166007F
:1005A0008837B1F78CE38093660025DEF1CF91DECA
:1005B000209651F3BB2041F3A7DF80B7886080BF4E
:1005C0003798CFE8D0E06E0102604CD086E080938F
:1005D00062008CE08093610081E085BD17FD0DC055
:1005E00047D0AAD043D0B4D043D0CCD03FD0D6D07F
:1005F0003FD0EED03BD0F8D00CC038D002D138D0AC
:10060000EDD034D0D8D034D0C3D030D0AED030D06C
:1006100099D080916100803010FDF1F0E6012096C4
:1006200059F2809161008C3038F483958093610099
:10063000629686ED90E004C01F7B6B9689E593E09F
:10064000C817D90710F06C01C9CF6E01C7CF5CDFA6
:10065000F9DDD1DDCBDDF6DD95CFE8E882B3847F2F
:1006600082BB5EC0F093610010645AC01F7D01C060
:10067000106280916200815050F08093620016FFFA
:1006800029C0C0E0DFEFAF2E2BDFA4E03BC0E8388D
:1006900009F4EAE816FF1EC0C0917300D0917400FF
:1006A000A090750072B77F71D71BAF0A30F0C030D1
:1006B0007AECD70778E0A70620F4C0E0D8EB7BE01F
:1006C000A72EC0937300D0937400A092750008DF2A
:1006D000AFEF18C07BE1E6DE12DF79E5E3DE00FF75
:1006E000BCCF14FDF6DD68B1612765FDF8CFCDDE26
:1006F000A92F6F13AFEFC80FD91FA61EC80FD91FA0
:10070000A61ED2DEBA2F00FFADCF14FDE2DD68B128
:10071000612765FD03C0AB17AF1FF5CFAA9599F709
:100720002BDE16FFECDE809162008F131160BF128A
:1007300008958F918F918BCF83E087B9979810FFA1
:10074000959A089582E087B9959810FF979A089531
:1007500081E087B9F894287F10FF226082B39398D4
:1007600092B38913919A7894089583E087B9F894A5
:10077000287F10FF246082B3919892B38913939AD3
:100780007894089582E087B9959810FF949A089517
:1007900081E087B9949810FF959A089583E087B90E
:1007A000F894287F10FF216082B3919892B3891347
:1007B000909A7894089582E087B9F894287F10FF82
:1007C000226082B3909892B38913919A7894089595
:1007D00081E087B9949810FF979A089583E087B9CC
:1007E000979810FF949A089582E087B9F894287F2B
:1007F00010FF246082B3909892B38913939A7894EF
:10080000089581E087B9F894287F10FF216082B3B2
:0C081000939892B38913909A78940895FD
:101C0000E4E0FFE5FEBFEDBF00E0ECEBFEE0C0E886
:101C1000D0E0A0E6B0E042E045BD5CEE539571F047
:101C200040EC04BD48BFA03619F0E8B6E6FC46C05B
:101C30008299F9CF04BD48BFE8B6E6FCE1C1829BBA
:101C4000FBCF04BD48BFE8B6E6FCE8CF8299FBCFE6
:101C500034B404BD48BFE8B6E6FCD2C1829BFBCFDA
:101C600024B4022C030C802C07940694402C069478
:101C70008008809420943094409460EE83E084BC8B
:101C800048BFE8B6E6FCBCC1829BFBCF84BC48BF22
:101C9000E8B6E6FCC3CF8299FBCF0894E8B6E6FC31
:101CA00023C0829BFBCFE8B6E6FCB8CF8299FBCF7E
:101CB0008894E8B6E6FC18C0829BFBCF43BC88E161
:101CC000929A8A9A34BC48BFE8B6E6FEFDCF929855
:101CD00024BC48BFE8B6E6FEFDCF8A9589F7C0E68A
:101CE000D0E060E081E00BC0679548F6815068F570
:101CF0005CEE0994CA17DB07D1F0699188E066951C
:101D0000929A34BC48BFE8B610F0E7FC02BBE6FE8E
:101D1000FACF929808F0929A24BC48BFE8B610F027
:101D2000E7FC02BBE6FEFACF8A9549F7E3CF929A29
:101D300034BC48BFC0E8D0E0A0E6B0E0E8B6E7FEBB
:101D4000FDCF8A9802BB6ACF80E060E898CFECEBC9
:101D5000FEE0C0E8D0E0F8CF009000000090000066
:101D60000090000000900000009000000090000033
:101D70000090000000900000000000006B3121F78F
:101D8000562E3796E1CF962E56263496DDCF762EF8
:101D900056263496D9CF662E56263496D5CF6E3039
:101DA000B1F656263596D0CF69935626CF3584E0C6
:101DB000D80768F681E0681A700A09F43C96C4CF27
:101DC0006511C5CFC0E8D0E0699199918991FD0175
:101DD0007BE170839182028372E073837EE074837F
:101DE0006583068317966130A1F48BE0838388E0D6
:101DF0008D93EF01ECEDFFE185918D93E43EE1F7EA
:101E0000FE01819161918627EA17FB07D9F78D932F
:101E10009ECF6D3151F5792F90E0039683839283A5
:101E200003970D938A95E9F789916991603380074B
:101E300094E0790779F460878991803059F4699149
:101E400060308EE131F0613083E919F0623087E073
:101E500009F482870D93D5CF8017900709F5D990A3
:101E6000C9905601AA0CBB1CCCCF6330E1F06230A4
:101E700041F2603131F2613121F2663069F3623151
:101E8000F1F1833F73E0970758F4643109F166314B
:101E900069F127966531C1F16331F9F10000000065
:101EA00080EC8683AECF90398FE071F0913982E07B
:101EB00059F092398AE041F0943982E329F0903860
:101EC00080E011F0913861F78D9383E0838399CF9F
:101ED00049D0EF01F5018FD076FDFDCF65916D936F
:101EE0000197E1F75F01FE010D938BCF3BD011E02D
:101EF0003ED06DB36D930197D9F70D9382CFCC246B
:101F0000DD2480E092E0689416E06FEF0EF06991B6
:101F10002ED00197D1F7E89474CF8F7F61E07F01D5
:101F2000F5010990199068D032960297D1F70F0108
:101F3000F501500163E0E03C7FE1F70719F058D06C
:101F4000F7015FCF0BD065E009D061E107D0F8CF92
:101F500077B770FDFDCFE199FECF0895F9DF67BF38
:101F6000E8950895039692838383039708953AD062
:101F7000DFBACEBA0894C01ED01E762FE09A6DB399
:0E1F8000671312FF08957DBBE29A1CBB089503
:101FC000687474703A2F2F6769746875622E636F36
:101FD0006D2F73696D2D2F7467792F00415652490B
:101FE00053505F3277B770FDFDCFE199FECF089572
:101FF00003D065E001D061E1F5DF67BFE8950895A2
:00000001FF
